:020000040800F2
:10000000003000207D3E0008CD3E0008912D000804
:10001000972D00089D2D0008A32D0008000000006A
:100020000000000000000000000000003D06000885
:10003000CD3E000800000000D7060008E7060008D3
:10004000CD3E0008CD3E0008CD3E0008CD3E000864
:10005000CD3E0008CD3E0008CD3E0008CD3E000854
:10006000CD3E0008CD3E0008CD3E0008CD3E000844
:10007000CD3E0008CD3E0008CD3E0008CD3E000834
:10008000CD3E0008CD3E0008CD3E0008E541000809
:10009000E1400008CD3E0008E9410008CD3E0008DF
:1000A000CD3E0008CD3E0008CD3E0008CD3E000804
:1000B000CD3E0008CD3E000800000000CD3E000807
:1000C000CD3E00080000000000000000CD3E00080A
:1000D00000000000CD3E0008CD3E0008CD3E0008E7
:1000E000CD3E0008CD3E00080000000000000000EA
:1000F0000000000000000000000000000000000000
:1001000000000000000000000000000000000000EF
:100110000000000000000000CD3E0008CD3E0008B9
:1001200000000000000000000000000000000000CF
:1001300000000000000000000000000000000000BF
:10014000CD3E0008CD3E0008000000000000000089
:10015000000000000000000000000000000000009F
:10016000000000000000000000000000000000008F
:10017000000000000000000000000000000000007F
:1001800000000000CD3E000810B5054C237833B9BF
:10019000044B13B10448AFF300800123237010BD5A
:1001A000C0030020000000007C76000808B5034B67
:1001B0001BB103490348AFF3008008BD00000000F5
:1001C000C40300207C760008A3F5803A704700BF86
:1001D000174B002B08BF134B9D46FFF7F5FF00217F
:1001E0008B460F461348144A121A06F021FA0E4B9A
:1001F000002B00D098470D4B002B00D098470020D3
:10020000002104000D000D48002802D00C4803F026
:1002100063FB06F06BF92000290001F027FE03F0D4
:1002200011FD00BF0000080000000000C91D00080B
:1002300000300020C003002020210020D938000811
:100240000000000007B5124B124800221A700DF191
:100250000701012202F0CBFAB0B10F4A53681268CD
:1002600019689DF80730114205BFC3EB0332C3EB99
:10027000820203EBC30203EB820318BF03EB4203CA
:10028000064A08BF1BB2138003B05DF804FB00BF31
:10029000D0050020DC03002070050020660400204B
:1002A00010B5054B0360044602F09CF9204602F0AD
:1002B0001FFA204610BD00BF3C6F000810B5044671
:1002C00002F0BAFA204610BD10B5034B0360044695
:1002D00002F090F8204610BD546F0008A0F17C0099
:1002E000F2E700BF0368184710B51022044600214A
:1002F00006F09EF90823237300236360A360204661
:1003000010BD0000144B1549B3F90020144B70B513
:10031000B3F90030134C0E88D21AB4F900302280A1
:10032000D01A114BB3F90050104BB3F9003092FBC7
:10033000F3F3334405FB00331BB240F6A3029342B0
:100340000B8001DD0A8070BD094A9342BCBF4FF2A9
:100350005D730B80F7E700BF660400205C0400209B
:100360005E04002064040020600400206204002079
:100370005DF7FFFF08B5FFF7C5FF194A194B0121CB
:10038000197013780B44DBB2142B85BF0023137054
:100390001370154B154A88BF197013780133DBB2FF
:1003A000142B08D81370124A13780133DBB2142BC4
:1003B0000BD8137008BD152313700E4A0023138049
:1003C0000D4A13800D4A1380EDE715231370094A77
:1003D00000231380084A1380084A1380EAE700BF0D
:1003E000D3050020D4050020D1050020D20500202F
:1003F000D00500205E0400205C040020640400207E
:1004000080B5474E47488CB04FF4E131002501F0EC
:100410005FFF444801230022082101F06CFFCDE971
:100420000065CDE90955404B0B96089308AC94E85C
:100430000E003C4801F098FF3C4B0B960A221A80B4
:100440003B4B0A9502271F803A4B3B481D803B4B94
:100450000096CDE9083541F288320023CDE9022328
:1004600094E80E0002F0E7F83548364E364D39462E
:1004700001F0BFFE3548394601F0BBFE04A8FFF786
:1004800033FF002204A9304601F030FE01280CD1D0
:10049000049A40F201239A4207D1BDF816302C4A43
:1004A0005BBA13802B4B00221A702B780BB3244AB3
:1004B000294F536812681B68134004D1244A3B80BB
:1004C0001380264A13802046FFF70EFF4FF4007377
:1004D000089308238DF82C303B885BBAADF82430A4
:1004E0000B9B009394E80E00304601F0DFFD0023E3
:1004F0002B701B4B1A78002AC0D000221A70144BA4
:100500001849B3F90020204602F065FF204606F0A6
:100510007EF921460246034802F043F9AEE700BFE8
:10052000E5020008DC030020450200086204002008
:100530006004002066040020900500207503000878
:10054000D805002068040020D40500207005002094
:100550005E040020D20500205C040020640400201A
:10056000D10500208C6D000810B50446FFF7ACFEE5
:100570002046802103F089FB204610BDA0F17C00BD
:10058000F2E70000F8B5224D224C234B234E0C22FB
:100590000B21284601F05EFD2846214D21492246C7
:1005A00003F098F94FF416530A220921284602F065
:1005B00035F928461C4D1D4922461C2703F08AF9AF
:1005C0003A460021284606F033F82846082102F072
:1005D00086F92846164D2246314603F07BF93A4605
:1005E0000021284606F024F82846152102F077F964
:1005F0002846104D2246314603F06CF9284602F099
:100600003DF8224628460C49BDE8F84003F062B99F
:10061000680400208801002040420F00BD0200084D
:10062000DC03002095210008D8050020C90200083D
:100630007005002090050020A10200081EF0040FA4
:100640000CBFEFF30880EFF30980816911F8021CF9
:10065000002932D101B590E80F10E047BDE8005005
:100660008CE80300244B93E80600914208BF7047D2
:100670001A6041B91EF0100F10D1204B186820F0FD
:10068000010018600AE02CE9F00F1EF0100F08BFFF
:100690002CED108A81F822E0C1F838C0906B92F8F6
:1006A000221061F0FF0E1EF0100F08BFB0EC108A90
:1006B000B0E8F00F80F309887047114A1368994237
:1006C000FAD801B552F821C00FC8E047BDE8005084
:1006D000CCF80000704701B500F0FCFEBDE8014019
:1006E000EFF3098CBEE701B500F0B8FEBDE80140AC
:1006F000EFF3098CB6E70000A001002034EF00E022
:10070000586E000870477047704770477047EFF3A6
:1007100010832BB9EFF31180003818BF0120704708
:100720000120704770B5464C237A012B00F085807C
:1007300033B14FF0FF30FFF7E5FF4FF0FF3070BDF2
:10074000404DD5E90B61EB68E3652B8AA4F8543082
:100750003046AB68236400F007F908B1C4F8806044
:10076000D5E90561304600F0FFF808B9D4F880609B
:100770006667D5E90761304600F0F6F808B9D4F8A5
:100780008060A667D5E90961304600F0EDF808B948
:10079000D4F88060E6676E6B3EB1D6E9022331681B
:1007A000304600F04BF9C4F88460AE6B3EB1D6E938
:1007B00002233168304600F041F9C4F88860EE6BDE
:1007C0003EB1D6E902233168304600F037F9C4F86B
:1007D0008C602E6C3EB1D6E902233168304600F0C1
:1007E0002DF9C4F890606E6C3EB1D6E902233168F1
:1007F000304600F023F9C4F89460AE6C3EB1D6E9FF
:1008000002233168304600F019F9C4F89860EE6CA4
:100810003EB1D6E902233168304600F00FF9C4F842
:100820009C602D6D3DB1D5E902232968284600F072
:1008300005F9C4F8A0500123237200207FE700BF10
:100840008C010020E86D000870B5254D2B7A012B36
:1008500007D06FF00600FFF755FF4FF0FF3420463A
:1008600070BD01F0B5F910B94FF0FF30F3E71D4A44
:100870001D4E1E497068FF2382F8223092F8223004
:10088000D26863F0FF03DB4314BFB3FA83F3202382
:10089000C3F12003C2F30222934298BF531CFE22ED
:1008A00002FA03F30F4ADBB2D37701F051FA0446A0
:1008B0000028D9D101F084FA286101F069FA0C48C6
:1008C00000F064FF00F0C8FF3368DB074CBF022371
:1008D000032383F31488BFF36F8F02232B72BEE7C9
:1008E0008C01002000ED00E0E86D0008E70600083C
:1008F000A8010020704738B504460D46FFF703FFF6
:1009000029462046BDE8384001F036BB08B5FFF760
:10091000F1FFEFF3058333B16FF00500FFF7F2FE4F
:100920006FF0050008BDFFF7F2FE0028F4D1DFF8F4
:1009300008C000DFF6E700BF2507000808B5EFF3A1
:10094000058333B16FF00500FFF7DCFE6FF00500A3
:1009500008BDFFF7DCFE0028F4D1DFF808C000DF97
:10096000F6E700BF4908000810B598B140EA010356
:1009700013F007030ED117290AD901600839102294
:100980000C18846042600B5081684A60C360012388
:10099000184610BD0023FBE7F0B5034670B369B3FA
:1009A00032F003002AD10F3121F0070103F10806CC
:1009B000344636686568301B25F00305401B8142CC
:1009C00003D930680028F3D1F0BD5F681D680F447B
:1009D0005F602B44083B5868874288BF5F6063684C
:1009E0000A431BB9626004F10800EDE723F003033A
:1009F000E018E650426020600830E5E70020E3E7B9
:100A000010B580B1C1B1A1F1080400F108030022C2
:100A1000A34209D1596821F003044168091B4160D0
:100A20003AB95A60012010BD19681A4621B10B4627
:100A3000EEE71B681360F5E70846F4E730B5C0B190
:100A400089B1C2B1CBB10024C0E9014202FB01F47B
:100A50001D190160C360436105611846013904D165
:100A6000A21A99500121084630BD85180560284614
:100A7000F4E70146F7E71146F5E71946F3E710B545
:100A80000346A8B100F1140252E8000F10B9BFF3F9
:100A90002F8F04E0016842E8001404B1F4E738B194
:100AA000043353E8002F511C43E8001404B1F8E765
:100AB00010BD30B5F0B1C3688B421BD803698B42BF
:100AC00018D900F114031A680A60BFF35F8F53E866
:100AD000002F0C689442F6D143E8001505B1F2E707
:100AE000043050E8003F5A1E40E8002101B1F8E709
:100AF000002030BD6FF00300FBE7EFF310832BB94C
:100B0000EFF31180003818BF0120704701207047B3
:100B1000D1E9013223B19A608A681AB153607047F3
:100B2000C262F9E7036370472DE9F84F884607462C
:100B300038B131B1B0FA80F3B1FA81F10B441F2B17
:100B400006DC6FF003010020FFF7E0FD002470E0F9
:100B500008F1030626F003060C3606FB00F9F2B195
:100B600094683CB1A30702D1D368332B05D86FF04A
:100B70000801E8E7D368002BF9D1D2E90453D2F891
:100B800000A03DB115F0030B01D1994554D96FF088
:100B90000901D8E7002BFAD11CB19B460CE0924624
:100BA0001546274BD3F8A000D8B1FFF768FF0446DD
:100BB000A0B14FF0010B35BB214B0022D86F494645
:100BC000FFF7EAFE0546C0B9BBF1000F06D01C4B8B
:100BD000D3F8A000214658B1FFF76BFF6FF0040176
:100BE000B1E7D3F8800001223421FFF7D5FEDEE71C
:100BF000D3F88000FFF704FFF0E74A46002105F034
:100C000017FD4BF0020BFA2323700023C4E909837C
:100C1000C4E90B33A36032462B4684F802B0C4F813
:100C200004A0394604F10C00FFF708FF044B054A05
:100C30001A672046BDE8F88F002CE4D1B1E700BF69
:100C40008C010020D50C000810B500F1280353E8F2
:100C5000002F12B9BFF32F8F04E0511E43E8001498
:100C600004B1F4E70AB9002010BDC06A01220028CF
:100C7000F9D0811CD1E84F3FC1E8442F04B1F9E716
:100C8000DBB2002BF0D08068F1E7036B30B5E3B145
:100C9000CD780024DA78AA420FD31A46C1E901249C
:100CA0008AB19160A4B16160283050E8003F5A1CBD
:100CB00040E8002101B1F8E730BD5A681C46002A1F
:100CC000ECD01346E6E7C162ECE7C1E90133C1624B
:100CD0000163E9E7F8B5877804468FB3C568014634
:100CE00000272846FFF714FF277005F10C04204663
:100CF000FFF7DFFEAB68002B48D02046FFF7BFFEB2
:100D00000446002842D0284600F040FD3A460646F8
:100D1000394600F0C3FE304600F094FD6A6A8168EF
:100D2000064604F10C0005F075FCF9232370A7704A
:100D3000F368E37021462846BDE8F840FFF7A5BFF9
:100D40008568AB68002BF5D05B78832BF2D1284601
:100D500000F01CFD3A460646394600F09FFE30463C
:100D600000F070FD06466A6A806804F10C0105F027
:100D700051FCF3680BB1E2781A700023237021460E
:100D800005F10C00BDE8F840FFF793BEF8BD000088
:100D90002DE9F0410C4617469846054618B10378F0
:100DA000FA2B00D141B928466FF00301FFF7AEFCE2
:100DB0006FF00300BDE8F0818368C3B15B78832BDB
:100DC00015D100F0E3FC01220646002100F066FE8A
:100DD000304600F037FD06466A6A8068214605F015
:100DE00019FCF0680028E5D007700020E2E705F163
:100DF0000C00FFF744FE064670B121466A6A0C30CB
:100E000005F008FC0024F9233370B470F770314604
:100E10002846FFF73AFFE8E7B8F1000F10D0414647
:100E2000932000F091FE40B1074B2846596900F02D
:100E30009BFCEFF30983C3E902476FF00100B9E7B8
:100E40006FF00200B6E700BF8C0100202DE9F041F1
:100E50000F4615469846044618B10378FA2B00D180
:100E600041B920466FF00301FFF750FC6FF003001B
:100E7000BDE8F081FFF7E8FE064600283AD00146BB
:100E80002046FFF745FE626A06F10C01384605F080
:100E9000C1FB0DB1F3782B70002504F10C07357000
:100EA00031463846FFF705FEA3680BB90020DFE79F
:100EB0003846FFF7E4FD06460028F7D0204600F04C
:100EC00065FC29460746012200F0E8FD384600F09F
:100ED000B9FC626A8168074606F10C0005F09AFBCE
:100EE000F9233370B570FB68F37031462046FFF785
:100EF000CCFEDBE7B8F1000F10D04146832000F0B4
:100F000023FE40B1074B2046596900F02DFCEFF35A
:100F10000983C3E902756FF00100A9E76FF00200D1
:100F2000A6E700BF8C01002008B5064B08219A6E89
:100F3000D86EFFF7F9FD044BD864B0FA80F0400991
:100F4000404208BDE86D00088C0100202DE9F04109
:100F500006460F4690461C46EFF305834BB196B903
:100F600030466FF00301FFF7D1FB6FF00300BDE8DF
:100F7000F081FFF7C2FD0028F1D1DFF84CC0304608
:100F8000234600DFF3E73378FA2BE9D1002FE7D0CF
:100F9000002CE5D106F10C00FFF771FD054680B18C
:100FA000726A39460C3005F035FBF9232846C5E94D
:100FB00001762B70AC7085F8038000F0D3FA2046E0
:100FC000D5E76FF00200D2E7910D0008F8B50446AE
:100FD0000F4616461D46EFF3058343B18CB92046F4
:100FE0006FF00301FFF792FB6FF00300F8BDFFF70E
:100FF00084FD0028F2D1DFF848C020462B4600DFF0
:10100000F4E72378FA2BEAD1002FE8D0002DE6D1BF
:101010002046FFF719FE054670B100F10C01626A27
:10102000384605F0F7FA0EB1EB7833702846EC60DD
:1010300000F098FA0020D9E76FF00200D6E700BF71
:101040004D0E0008EFF310832BB9EFF31180003839
:1010500018BF0120704701207047000070B5A8B389
:101060008468D0E900566CB114F0030302D1C26861
:101070001B2A1AD86FF008010020FFF746FB002456
:10108000204670BDC368002BF4D1124BD3F89400F6
:1010900030B9D3F8800001221C21FFF77DFC01E06C
:1010A000FFF7EDFC044660B10123F522A370002395
:1010B000C4E90233C4E904332270E6706560237624
:1010C000DEE76FF00401FFF720FBD9E7054606468F
:1010D000DBE700BF8C010020284B70B55D6904463A
:1010E0000E4635B96FF00701FFF70FFB4FF0FF30E9
:1010F00070BD10B10378F52B07D020466FF00301C7
:10110000FFF703FB6FF00300F2E7037E53B9C0E97A
:101110000353EB6A436103B11861EC620123237648
:101120000020E5E7C278D1070DD5C168A9420AD1F0
:10113000FF2B06D16FF00F01FFF7E7FA6FF0020007
:10114000D6E70133EBE7002EF8D093070AD5E06825
:1011500095F9203090F920209A4203DA80F8203067
:1011600000F026FB3146532000F0EEFC18B1294672
:10117000204600F0F9FA6FF00100B9E78C01002079
:101180002E4B5A6970B5044632B96FF00701FFF76C
:10119000BCFA4FF0FF3070BD10B10378F52B07D0CB
:1011A00020466FF00301FFF7B0FA6FF00300F2E79B
:1011B000037E33B96FF00E01FFF7A7FA6FF002005C
:1011C000E9E7C168914202D06FF00D01F4E7013BFD
:1011D000DBB2037613BB43690BB101691961216965
:1011E000F1B14B6192F92130D56ADDB982F8203036
:1011F000A36883B1204600F0C9FA06462A4629466C
:1012000000F04CFCF36A6361C4E9036503B11C613F
:101210000123F4622376002000F026FB0020BAE7C9
:10122000D362DFE7E978890706D5A96821B191F98A
:1012300020108B42B8BF0B466D69D6E78C010020A9
:1012400070B5044610B10378F52B07D020466FF037
:101250000301FFF75AFA6FF0030070BD037EBBB1C4
:101260006369C0680BB122691A61226902B35361D4
:1012700090F92120C36AEBB990F92030934203D052
:1012800080F8202000F094FAA068F8B900F0ECFA99
:10129000A078002610F001002670DED0134BD3F8A2
:1012A00094502146DDB12846FFF703FC3046D4E7D1
:1012B000C362DDE7D978890706D5996821B191F92C
:1012C00020108A42B8BF0A465B69D4E7204600F086
:1012D0005DFA00226FF0020100F0E0FBD4E7D3F8E2
:1012E0008000FFF78DFB2846B7E700BF8C01002088
:1012F0002DE9F0410446002601270CB9BDE8F08134
:10130000E378D4F814801B0712D5A36826767BB146
:10131000204600F03BFA00220546114600F0BEFBD5
:10132000EB6A6361C4E9035603B11C61EC62277682
:101330004446E2E710B4C3789B071DD5C06890F916
:101340002120C36ADC78A40709D59C688C4208BFB9
:101350008C6824B194F92040A242B8BF22465B6950
:10136000002BEFD190F92030934205D080F8202057
:101370005DF8044B00F01CBA5DF8044B70470000A8
:1013800008B50246EFF3058333B100206FF0050185
:10139000FFF7BBF9002008BDFFF754FE0028F4D189
:1013A000DFF808C0104600DFF5E700BF5D10000859
:1013B00008B50246EFF305833BB110466FF0050117
:1013C000FFF7A3F96FF0050008BDFFF73BFE00280B
:1013D000F3D1DFF808C0104600DFF5E7D9100008A8
:1013E00008B50246EFF305833BB110466FF00501E7
:1013F000FFF78BF96FF0050008BDFFF723FE00280B
:10140000F3D1DFF808C0104600DFF5E781110008CE
:1014100008B50246EFF305833BB110466FF00501B6
:10142000FFF773F96FF0050008BDFFF70BFE00280A
:10143000F3D1DFF808C0104600DFF5E741120008DD
:1014400010B5D0E85F3F5A1C914200D80022C0E896
:10145000542F04B1F5E798B210BD000038B51C4C0C
:1014600000F0AAFCE3680133E36000F0BBF9002060
:1014700000F0FAF9236D03B19847226C32B3A369E7
:10148000E16B994203D0D969E36301B9DA61DA69A2
:10149000C2B9237A022B19D1656ABDB1E36B95F904
:1014A000202093F920309A4210D1284600F077F995
:1014B000E06B00F08FF9284600F0CEF9236CE5636D
:1014C000EB6103E0013ADA61002AE2D038BD00BFE7
:1014D0008C01002070B5224C04F1560504F15A0627
:1014E000B4F85410D5E85F3F13B9BFF32F8F04E071
:1014F0005A1EC5E8502F00B1F4E79BB25BB33046EB
:10150000FFF79EFFE36D53F8200020B30378F13B13
:10151000082BE5D801A252F823F000BF41150008BE
:10152000E114000847150008E1140008E114000860
:101530004B1500084F150008E1140008531500086A
:10154000236E9847CCE7636EFBE7A36EF9E7E36E83
:10155000F7E7236FF5E7BDE87040002000F084B99D
:101560008C01002070B5164C0546B4F8541004F1F7
:101570005602D2E85F3F994202D8BFF32F8F04E0B2
:10158000581CC2E8560F06B1F3E79BB2994205D842
:1015900029460220BDE87040FFF7ADB904F15800BC
:1015A000FFF74EFFE36D43F82050637A23B9054BF4
:1015B0004FF080525A6070BD0123A372FBE700BF59
:1015C0008C01002000ED00E0EFF310832BB9EFF366
:1015D0001180003818BF0120704701207047037840
:1015E000F12B00D07047C068F9E7000010B5C4695E
:1015F000621CD0E904310CD103B1596142691AB1BE
:1016000013610023436101E0074A13630023C361B0
:1016100010BD1BB1DA6959612244DA614269002ABE
:10162000EED1014AD362F1E78C01002010B50A4ADD
:1016300090F9201001234370536A1C321BB193F9B7
:1016400020408C4205DCC0E90232906003B1D860D2
:1016500010BD1A469B68F1E78C010020014B5869C8
:10166000704700BF8C01002010B5002303808378F1
:101670009A07044608D513F0100F016B0E4B0FD0DC
:10168000D3F88400FFF715FAA378DB0712D50A4BCD
:10169000D3F88800214638B1BDE81040FFF709BAF9
:1016A000586FFFF7ADF9EFE7BDE81040D3F88000C1
:1016B000FFF7A6B910BD00BF8C01002008B500F0EF
:1016C0008DFCDFF810C000DF4FF0FF310020FFF786
:1016D0001BF8FEE7051B0008C278D207034601D4B9
:1016E000FFF7C2BF0422054942700022C2604A6B64
:1016F000826002B1D0604B63704700BF8C01002054
:10170000930710B502F0010422D400F1280384B13C
:1017100053E8000F00EA01028A4203D0BFF32F8F83
:10172000002005E020EA010243E8002404B1EFE7CD
:1017300010BD53E8000F084203D1BFF32F8F0020E4
:1017400005E020EA010243E8002404B1F1E7EFE7F5
:10175000806A01EA00031CB18B4218BF0020E7E752
:10176000002B08BF0020E3E710B591F92020836823
:101770001BB193F92040944205DAC1E9023081603F
:1017800003B1D96010BD18469B68F1E783689A6879
:10179000826002B1D0600022DA6018467047C268E9
:1017A0002AB18368936003B1DA600023C360704795
:1017B00010B5044664B12378F12B07D0FFF7EFFF93
:1017C00001462046BDE81040FFF7CEBFE468F1E7D0
:1017D00010BD00000123014643700148FFF7C4BF5C
:1017E000A801002038B5164DEC6A44B3E369013B0B
:1017F000E36123BB6378732B06D009D8532B0BD03E
:1018000003F0DF03432B0DD12046FFF7E8FE09E08C
:1018100003F0EF03832BF6E72046FFF7E0FE2146B7
:10182000FFF788FD2046FFF7BAFFFFF7D3FF2469D3
:1018300024B1E369002BDDD000236361EC6238BD85
:101840008C01002090F82230826B13F0100F0CBF37
:10185000602020201044704702234370014B9861A0
:10186000704700BF8C01002070B5124D04462E7ADF
:10187000696990B9022E0FD16C6A6CB194F920207D
:1018800091F920309A4207DD2046FFF788FF08468D
:10189000FFF7CCFE6670AC6170BD022E05D190F9E9
:1018A000202091F920309A42F1DC2046BDE87040BA
:1018B000FFF790BF8C0100202DE9F04F85B0039118
:1018C000019028B96FF00301FEF71EFF0024BEE06F
:1018D000002A4AD0966846B1B00702D1D368432B9C
:1018E00006D86FF008010020EEE7D368002BF8D18E
:1018F000D2E90449976944B1610703D1B9F1000FF6
:1019000040F0B1806FF00A01EDE72FB1791E372961
:1019100003D96FF00B01E6E71827B9F1000F40F08B
:10192000A680D2E900B3029366BB564DD5F8880075
:1019300008B3FFF7A4F8064600283DD04FF0010891
:10194000DFF840A1002C42D1B9F1000F1DD14E4B60
:10195000DAF88400D3F85490B8B1FFF790F8054650
:10196000E0B148F01008344623E0934614461827A7
:1019700091460292D9E7D5F8800001224421FFF771
:101980000BF8D8E74FF00008DAE7DAF874002246DF
:101990004946FFF701F805460028E4D1B8F1000FE9
:1019A00013D0DAF8885031464DB12846FFF781F858
:1019B000002548F0020864B96FF0040193E7DAF8F3
:1019C0008000FFF71DF82C46F3E74546F1E7254672
:1019D000344640F2F11222800022C4E90222C4E916
:1019E0000422C4E90622C4E90922C4E90B25A9F1AD
:1019F0004002029BE3702A44019BA2637FB2234A08
:101A0000E363FD2184F80280C4F804B084F82070F8
:101A100084F821706184C4F834902A601A4A1268EC
:101A2000530718D4A36B34221846002104F000FE9B
:101A3000174A4263019A82634FF08072C263039A2D
:101A40000262144BCAF860302046FFF70DFF2046B3
:101A500005B0BDE8F08F29F00302443ACC21281DDF
:101A600004F0E6FDDEE7002F7FF450AF182719F0F1
:101A7000070F7FF447AF0849A9F1480088427FF675
:101A800050AF3FE78C010020E86D0008A52E5AE218
:101A9000BD160008C11A0008B7FFFF7F38B505461C
:101AA0001446FFF7CFFE01602846FFF79FFD1CB1EB
:101AB000BDE83840FFF7D8BEBDE83840FFF78ABE22
:101AC00010B54378332B04460CD1416A90F823209B
:101AD000FFF716FE014628B120460022BDE810405F
:101AE000FFF7DCBF10BD10B50446806918B10022B5
:101AF0001146FFF7D3FF6378232B02BFA3680022B0
:101B00009A6110BD70B50F4C267A022E18D1636A07
:101B1000B3B16569E86AFFF7EBFB2846FFF7E3FF1F
:101B200004F11C00FFF732FE4670A061EFF3098359
:101B3000AB63002363612846BDE87040FFF7CCBD6E
:101B400070BD00BF8C01002038B51F4C237A022BDA
:101B500035D1636A002B34D063694A1C587016D1A2
:101B6000226B002172B94FF0FF30C3E90421D86124
:101B700059B10B611548FFF709FE02234370A061BC
:101B8000012038BD11461269ECE72363F2E7E26AEF
:101B9000002012B1D569A9420BD2C3E90420D96152
:101BA00058B10361002AE5D0D0695361411AD1616F
:101BB000E0E71046491B1269EBE7E362F2E7002019
:101BC000DFE71846DDE700BF8C010020A8010020F8
:101BD00038B50D4C0D48A26D0D4D0021FFF76CFE80
:101BE000636EA8625BB1984758B9E26DE96C206EEC
:101BF000FFF762FEA864003818BF012038BD01203D
:101C0000FCE70020FAE700BFE86D0008711F00083C
:101C10008C01002010B50446EFF3058333B100209A
:101C20006FF00501FEF770FD002010BDFFF7CCFC42
:101C30000028F4D1DFF808C0204600DFF5E700BF38
:101C4000B918000808B5EFF3058313B1054B5869BF
:101C500008BDFFF7B9FC0028F8D1DFF80CC000DFA1
:101C6000F6E700BF8C0100205D16000830B50C4D72
:101C70006B6C002213B11C698C420AD9C0E90223A3
:101C800001611BB11C699860611A19612AB1D060A9
:101C900030BD1A46091BDB68ECE76864F8E700BF53
:101CA0008C0100202DE9F041184D6C6C54B3236970
:101CB0006E69013B23610127236913BBE3680BB104
:101CC000A2689A606B640023E86C1A4604F118015C
:101CD000FFF73CF958B1D5E90583214603206B6134
:101CE000FEF709FE6B6913B9B04508BF0026E3781B
:101CF000012B09D161692046FFF7B8FF6C6C002CFD
:101D0000DAD16E61BDE8F0816770F7E78C010020E1
:101D100008B5FFF709F918B9034B044A1A6508BD5D
:101D20004FF0FF30FBE700BF8C010020A51C00082E
:101D300007B504464FF0FF33002269462046FFF7FF
:101D400045F90028F6D1DDE900309847F2E70000B8
:101D5000A8B10C4B1B68B3FBF0F00138B0F1807FE9
:101D60000DD2094BFF2283F823204FF0E0230622F7
:101D70001A61586100209861044B187070474FF049
:101D8000FF3070474003002000ED00E0400C0020D1
:101D9000074B1A782AB100221A70064B4FF0806266
:101DA0005A604FF0E022136943F00103136170475A
:101DB000400C002000ED00E04FF0E0231B6970476D
:101DC0004FF0FF307047000008B5094B094A1A6010
:101DD000094B9B1A094A1360094B0A4A1A600A4BBD
:101DE0009B1A0A4A136000F051F800F081F800BF16
:101DF000A80C0020002C002000300020A40C0020A3
:101E0000D41E002020210020002C0020D01E002005
:101E10000E4838B50E4B03600B250E4B45601C2455
:101E2000C4608360FFF7ACFA0B4B18600B480C4B97
:101E3000C460C0E900350B4B8360FFF7A1FA0A4B81
:101E40001860BDE8384004F051BB00BF740C00209E
:101E5000BC6E0008880C0020840C0020440C00207C
:101E6000C96E0008580C0020540C0020FEF7C8BAB8
:101E7000024B4FF0FF311868FFF79ABA840C00202C
:101E8000014B1868FFF7ACBA840C002008B50C4B66
:101E90000C4998684FF00053C21802F16042126872
:101EA00043F8042B8B42F7D1054B4FF000529A6058
:101EB00002F0CCFC03F0A6F8BDE8084000F015B82D
:101EC00000ED00E0880100207047704708B500F081
:101ED0003DF8FFF7F9FFFFF79BFFFFF7F6FF01F073
:101EE00009FCBDE80840FFF7C1BFFEF70FBD0000C9
:101EF000104C114B23614FF4805363614423E36022
:101F00000E4BA360182307B5A3610D480D4B23604A
:101F100022460021FFF77EFE034628B900902246A4
:101F20000948194601F0EEFBFEF708FD0023009377
:101F30001A46F5E7B01C0020B00C0020D41C00208D
:101F4000CD1E0008E36E00081D0101801FB5064B81
:101F50000FCB6C4684E80F002046FFF711FA034BC5
:101F6000186004B010BD00BFE86E0008181D002006
:101F700008B500F04DF8000007B50023421E00939D
:101F80000023042A19D8DFE802F003080C1014001B
:101F90000C480122194601F0B5FB0B4802221946F4
:101FA000F9E70A4803221946F5E7094804221946C9
:101FB000F1E7084805221946EDE7024619460648AA
:101FC000E9E700BF25010280260102802701028087
:101FD000280102802A0102800001028010B5FFF76B
:101FE00031FE034B1B6813B1BDE81040184710BD0C
:101FF000381D002008B501F0D3FA01F095FB01F07F
:10200000C9FB01F0A5FBBDE8084001F0D3BA000010
:1020100008B5024C23689847FCE700BF3002002057
:10202000036801221B6900211847036800221B690D
:10203000114618476FF01500704700EB011054303F
:10204000C36803B118477047E43001F0ABBEE43019
:1020500001F0C4BE2DE9F84305469946114B45F8F9
:10206000043B04460F46904600215022284604F0C7
:10207000DFFA04F1540604F1E4000023F3601036A3
:10208000B042FBD101F086FE4B4642463946284617
:1020900002F088FA28460449224602F0A7F82046B2
:1020A000BDE8F883006F00083B20000884B073B5DA
:1020B000064607AC84E80E0056F8043B9B680546CC
:1020C0009847002301930A9B009394E80E00304642
:1020D00002F042F92B680446DB6828469847204600
:1020E00002B0BDE8704004B0704700007FB50646FE
:1020F0000D4656F8043B03929B68044698473046C9
:10210000039A294602F07DF92B7B082B064606D957
:102110000023064800931A46194601F0F3FA236893
:102120002046DB689847304604B070BD1B01108024
:1021300084B02DE9F0479DF8348009AE86E80E00A2
:102140000368054608F105049B6805EB04179847EA
:102150000C9A3B69043705F10409AAB10BB901F0E7
:10216000E3FA96E80F0005EB0414043484E80F004A
:1021700001224846414602F04DFA2B682846BDE848
:10218000F047DB6804B018470BB101F0E1FA002218
:10219000FA60EEE7F0B5104B036089B00025044605
:1021A0002F4604AEEBB2CDE90073204696E80E0050
:1021B0000135FFF7BDFF092DF4D1201D039002F07A
:1021C00023F8039802F030F804F1E40001F01EFE59
:1021D000204609B0F0BD00BF006F000810B50446EE
:1021E000FFF7D8FF20464FF4847101F04EFD2046E2
:1021F00010BD07B5CDE9001001F0D2F9DDE90010FE
:1022000002F0E2FA03B05DF804EB01F0D3B97047D5
:1022100070B500F10C06B0F95820B0F9561004461C
:10222000304602F047FDD4E918530DB9DA070ED550
:102230005A1004EB6300DB0748BFA35894F86810FA
:1022400048BF5D59B4F96A20B4F96C30A847216DD4
:10225000304602F0DBFC224630460249BDE87040C1
:1022600001F088BE692400082DE9F0419846164B1C
:1022700003600025154B436004460F4616468560F3
:10228000242229460C3004F0D3F940F20113A4F8BB
:1022900054304FF6FF732046C4E91358C4E917556C
:1022A000C4E91C55E563A4F85670A4F85860656647
:1022B00084F86850A4F86A30A4F86C30A567FFF77A
:1022C000A7FF2046BDE8F081186F00081122000822
:1022D00070B50646044656F80C3B0D461B689847F9
:1022E0003046294602F092FC2368256520465B684B
:1022F000BDE8704018477FB50546044655F80C6B9D
:102300000193CDE902213668B047DDE90132284664
:10231000039902F07FFC23685B68204604B0BDE8A7
:102320007040184738B50546044655F80C3B1B6805
:102330009847284602F01CFC236805465B68204647
:102340009847284638BD38B50546044655F80C3B35
:102350001B689847284602F01BFC236805465B680B
:1023600020469847284638BD84B02DE9F04709AE8D
:1023700086E80E0003689DF834701B680546984790
:1023800095F85430FC1C03B18FB195F855300BB162
:10239000012F0CD096E80F0005EB041484E80F0021
:1023A0002B682846BDE8F0475B6804B0184701F089
:1023B000F7F805EB04190C9AD9F80C3005F10C0864
:1023C00082B10BB901F0B0F996E80F0005EB0414E7
:1023D00084E80F0001223946404601F0D7FD01F0A4
:1023E000E9F8DDE70BB101F0B3F90022C9F80C20E0
:1023F000F1E7000070B5104B036086B00026CDE910
:10240000006602AD95E80E000446FFF7ADFF01231C
:10241000CDE90063204695E80E00FFF7A5FF94F88C
:10242000543013B994F855301BB104F10C0002F08C
:1024300037FB204606B070BD186F000810B5044683
:10244000FFF7D8FF20467C2101F01FFC204610BD7D
:102450000C3001F0FDBD10B50C300C4601F02CFE27
:10246000204610BDC3681847033100EB011008B5C2
:10247000C3680BB1FFF7F6FF08BD036870B50446EB
:102480001B680D46984794F85430AB422AD065B18A
:1024900094F855304BB9A2686368511004EB6200A0
:1024A000D20744BF6258D358984701F079F8FDB17C
:1024B000E36B5BB104F13000FFF7D4FF01F034F9B6
:1024C0000122002104F10C0001F060FD01F072F81E
:1024D00084F8545035B994F855301BB904F10C0008
:1024E00002F0DEFA236820465B68BDE870401847BA
:1024F0002A46294604F10C0001F048FDE36B002B4D
:10250000E4D001F025F9E1E7036870B504461B68E3
:102510000D46984794F85530AB422AD065B194F8EF
:1025200054304BB9A2686368511004EB6200D207C3
:1025300044BF6258D358984701F032F8FDB1E36CBC
:102540005BB104F14000FFF78DFF01F0EDF80122CF
:10255000114604F10C0001F019FD01F02BF884F88C
:10256000555035B994F854301BB904F10C0002F001
:1025700097FA236820465B68BDE8704018472A46F2
:10258000012104F10C0001F001FDE36C002BE4D00B
:1025900001F0DEF8E1E770B5D0E90213D0E90825D3
:1025A0000446521845EB030300F092F8636B23B125
:1025B00004F12800BDE87040184770BD38B50446E6
:1025C000154600F06FF8064B236000220023C4E993
:1025D00008230023636384F83850204638BD00BFC9
:1025E0003C6F000813B5044601A800F00CFF20461C
:1025F00000F078F8636B23B194F838300BB101F038
:10260000A7F80023636301A800F005FF02B010BD26
:1026100070B5054614461E4600F064F8C5E9084644
:10262000A86900F08BFB221846EB01032846BDE8A1
:10263000704000F04DB884B073B5054607AC01A8F2
:1026400084E80E0000F0DFFE6B6B23B995F838309C
:102650000BB101F069F894E80F0005F1280686E84F
:102660000F00DDE90C232846FFF7D2FF01A800F098
:10267000D2FE02B0BDE8704004B0704710B5044609
:1026800000F072FB012201462046FFF797FF024B44
:102690002360204610BD00BF306F000803681B6830
:1026A0001847000010B50446074B236000220023A2
:1026B000C4E9022300230846A161C4E904330349A5
:1026C00000F0CBFA204610BD486F00089D26000898
:1026D00007B5009000F10801806900F0FCFA03B032
:1026E0005DF804FB00F10801806900F00CBB0000FC
:1026F00010B5034B03600446FFF7F4FF204610BDFE
:10270000486F00080020704700290CBF6FF01800C8
:10271000002070470120704784B001A880E80E00B7
:1027200004B070476FF01C0070476FF01C007047DA
:102730006FF0150070476FF015007047012070476B
:1027400001207047002070470020704770B511F0DD
:10275000010405468EB204D0FFF7E4FD041E18BF45
:102760000124F30605D52846FFF7EDFD08B144F036
:102770001004204670BDA0F17C00FFF7E7BF08B54C
:10278000FFF77BFE002008BDA0F17C00FFF7F7BF3C
:1027900008B5FFF7B9FE002008BDA0F17C00FFF7E7
:1027A000F7BF2DE9F04106460D461746C2B100F0CD
:1027B000F4FE80F0010313F0FF0403D033683046C9
:1027C0001B68984705EB070815F8011B3046FFF713
:1027D00042FEA845F8D11CB1336830465B68984783
:1027E0003846BDE8F081A0F17C00FFF7DABF38B5CC
:1027F00004460D4662B103681B6898472046FFF700
:1028000027FE2870236820465B689847012038BD62
:102810001046FCE7A0F17C00FFF7E9BF10B50446C5
:10282000FFF722FD034B03F1080244332260E36704
:10283000204610BD4C6F000870470000EFF3108376
:1028400072B6054A117831B90449DB4303F001033C
:102850000B700123137070473D1D00203C1D0020AC
:10286000034B00221A70034B1B7803B162B670470A
:102870003D1D00203C1D0020014B1878704700BF13
:102880003D1D002070B50E460446154601F07AFF46
:10289000013609D02046002101F09AFF2946204642
:1028A000BDE8704001F090BF70BDF8B50F4604461A
:1028B00015461E4601F066FF01370FD023685EB152
:1028C000A26813602046012101F082FF29462046BC
:1028D000BDE8F84001F078BFE268F2E7F8BD0022F9
:1028E000FFF7D0BF13460022FFF7DFBF0022FFF73C
:1028F000F9BF0000884207B502460AD0431C08D041
:10290000013105D0002305480093194600F0FAFE76
:102910000146084603B05DF804FB00BF30010180AA
:10292000B1F900305A1C01D118467047834201D1D9
:10293000486870470C31F3E7421C13B504460AD0CF
:10294000FFF7EEFF431C06D1002304480093224604
:10295000194600F0D7FE02B010BD00BF3001018063
:10296000B1F900305A1C01D118467047834201D199
:10297000886870470C31F3E7F8B5446894F8326022
:102980008EBB03685B689847216A81422BD023691C
:1029900094F934202062411A1940A368A1FB03C1B5
:1029A000CAB1656A15EB0C0541F10001002A1BDB79
:1029B000C2F12000A2F1200325FA02FC01FA00F086
:1029C00021FA03F34CEA000C4CEA030CD1400CFA58
:1029D00002F2AA1A6262D4E90A3213EB0C0341EB49
:1029E0000201C4E90A31F8BDE76833463A46284691
:1029F00004F03EF8844607FB10506062EBE7824229
:102A000006D98A420BD9884294BF00200120704722
:102A1000884206D98A428CBF0020012070470120DD
:102A20007047002070472DE9F3474668336B23F069
:102A30007F4A2AF0FF0A0746BAF1000F68D1FFF774
:102A40009BFF7368D7F80080002B56D0D3E9004273
:102A5000D6E90A13A142934105D3D8F8143002B045
:102A6000BDE8F04718477D68D5E90A31E41A62EB02
:102A7000010CD5E90592EB69A24273EB0C030DD36F
:102A8000EB68A3FB044103FB0C1195F933C0BCF1C7
:102A9000000F19D12046814528BF81462A6AD8F8FF
:102AA000103091442A6909EA0202104601929847BF
:102AB0003B685B689847019A0146306AFFF79FFFC1
:102AC00030B33B685B69CAE7AA68501E001941F140
:102AD0000001BCF1000F0CDBCCF12002ACF12003B3
:102AE00020FA0CF001FA02F2104321FA03F3184322
:102AF000D1E7534603F0BCFFCDE77369306A326912
:102B00001844D8F81030104002B0BDE8F04718471C
:102B100002B0BDE8F0870000436893F830202DE94B
:102B2000F0410546002A73D193F83230002B6FD163
:102B300003681B6898472B68DB699847354B026828
:102B4000002A08BF1A4611461C46B1FBF3F304FBEA
:102B500013132146002BF7D16E682E4FB7FBF4F705
:102B60001F23B7600121013B03D301FA03FC674532
:102B7000F9D186F83330B2FBF4F21F23F260012161
:102B800001FA03F4A24201D0013BF9D286F83430B5
:102B90004068031F1B2B96BF0123202083404FF06A
:102BA0000701A0F1040001FA00F194BF03F1FF3323
:102BB0004FF0FF334FF00008501E336171614FEA50
:102BC000E173A1FB074107FB031748F1FF31201810
:102BD00047EB0101434603F04BFF2B68C6E90601B2
:102BE000C6E900885B6898476B6830620021002066
:102BF0000122C3E90A01C3F82480284683F8328001
:102C00001A86FFF7B9FE2846BDE8F041FFF70BBF73
:102C1000BDE8F08140420F00F0B44568049C8C6030
:102C2000C1E900236C6800262CB9CC6066B96960E4
:102C3000F0BCFFF7F8BE2768BA42676873EB070776
:102C4000F3D32646E468EFE7F160D5E90A41944200
:102C500071EB0303ECD2F0BC704738B505460C4667
:102C6000FFF75AFF00F09CFC6B681C60BDE8384021
:102C700000F0A0BC70B5054600F092FCD5E9003428
:102C8000DB68984794F832301BB1BDE8704000F023
:102C900091BC012384F831306368ABB12846FFF75B
:102CA0006BFE6368D4E90A61D3E90002864271EBE6
:102CB000020209D36A68DB68526863602368002BEC
:102CC000EAD090689847E7E7002384F83130284637
:102CD000FFF7A9FED9E710B586B0CDE9042103932B
:102CE000089C029000F05CFC0298FFF745FEDDE9CD
:102CF0000332059902980094FFF78EFF06B0BDE8F5
:102D0000104000F057BC38B505460C4600F048FCB2
:102D10006A685368A34209D1DB6853602846FFF70D
:102D200082FEBDE8384000F045BC1346002BF8D0C9
:102D3000DA68A242F9D1E268DA60F2E713B5044634
:102D4000FFF7EAFE00F02CFC2046FFF715FE636853
:102D5000D3E90A01CDE9000100F02CFCDDE9000116
:102D600002B010BD7047000000487047D86F0008DF
:102D7000024B1B680BB10248184770473402002011
:102D8000D86F0008B1F90C20B1F9041001F092BF1E
:102D9000102300F007B8202300F004B8302300F01F
:102DA00001B840239C46F0B404AE7546E80801D350
:102DB000EFF309860E4F0FCE0FC70FBC0FC740466B
:102DC000494652465B460FC71DCE3100A60A00D3C6
:102DD00004316E0900D248311FC7EFF309806946FC
:102DE000EFF3148663C76046014900F079F800BF2D
:102DF000781D0020F0B52C4E2C4F85B000243546B0
:102E0000214656F8042B3846013400F0ADFB0D2C5A
:102E1000F6D1AB6C02936B6C01932B6C244C00933A
:102E2000D5E90E23696B234800F09EFB21682248F8
:102E300000F09AFBE16AA26AA36AA06A266BE76BBC
:102E4000000CCDE901670090C3F307231B48D2B201
:102E500000F08AFBA36A1E0603D5616B184800F0D8
:102E600083FBA36A180403D5A16B164800F07CFB12
:102E7000EB6C190712D5144800F076FB2B6DDA07BE
:102E80000FD5124800F070FBEB6C5B074CBF10488D
:102E9000104805B0BDE8F04000F066BB0E4800F0F9
:102EA00063FB0E48EEE700BF781D002004700008A9
:102EB00000ED00E012700008617000086F700008FB
:102EC000BE700008CC700008DA700008E9700008D5
:102ED000197100082571000809710008F6700008D2
:102EE00007B504460D461A48012100F0C2FA68BB36
:102EF000184800F039FB302C19D0402C1CD0202C65
:102F00001FD11548154C00F02FFB154800F02CFB85
:102F1000FFF770FF134800F027FB0D4B00221A70DB
:102F20000023114900932A46204600F0EBFB0F488E
:102F30000F4C00F019FBE8E70E480F4C00F014FBB3
:102F4000E3E70E480E4C00F00FFBDEE70024E7E756
:102F5000441E0020317100085A7100083E01FF80B4
:102F60008771000892710008B1710008697100084A
:102F70003F01FF80727100084001FF807D710008F1
:102F80003D01FF8070B5144612686FF00046B242F2
:102F90000546049807D238B10146184603F07EFA78
:102FA000431C05D1206070BD15B18A4238BFAB54B7
:102FB000236801332360F6E72DE9F04F2DED028BF6
:102FC0008DB007469DF870309DF868B00493884630
:102FD00091460021142207A8DDE91845069103F067
:102FE00027FB049B002B14BF30232023BBF1010FD0
:102FF00008EE103A43D1002D41DA644265EB4505F5
:10300000CDF808B000230393ABF10203DBB20DF15E
:10301000180A0593059B012B5AD8BBF1020F04F047
:103020000F030CBF384A394A2409D35C8AF80030B0
:1030300044EA05742D09039B5E1C54EA05030AF15A
:10304000010A43D1029B23B3049B3BB11D9B009318
:103050004A462D2341463846FFF794FF039E1B9BAB
:1030600002369E421ADB049B3BB91D9B00934A46E5
:103070002D2341463846FFF785FF013E1FE054EA05
:10308000050302D000230293BCE730238DF81830EB
:1030900001261B9B9E4212DA002302931D9B009384
:1030A0004A4618EE103A41463846FFF76BFF1B9B25
:1030B000013BB3421B93F1DC029B002BD3D106AC46
:1030C000C6B90DB0BDEC028BBDE8F08F0396A1E749
:1030D000204629460A22002303F0CAFC30328AF82F
:1030E0000020204629460A22002303F0C1FC0446A2
:1030F0000D46A0E71D9B0093013E4A46A35D414655
:103100003846FFF73FFFDBE7C1710008D1710008C7
:103110002DE9F04F8BB01C460023149E09938B467B
:103120001546BAB1994215DB1ABF01F1FF3B98462B
:103130004FF001084FF0000A15F80A3073B948B192
:10314000B8F1000F06D1099B5B4594BF00F80380DE
:1031500000F80B8009980BB0BDE8F08F252B40F0EC
:1031600032810AF1010915F80930203BDBB20D2B41
:1031700007D842F6090222FA03F3DB0748BF0AF137
:10318000020915F809302A2B24D1002209F1010780
:103190000434114615F807C0BCF12E0F05EB0703E8
:1031A0005ED193F801C0BCF12A0F2ED0C5F1010702
:1031B0004FF0000C0797079F1F4413F801EFAEF183
:1031C000300E5FFA8EF9B9F1090F21D80A2707FBF3
:1031D0000CECF0E7302B16D109F1010915F8093094
:1031E000302BF9D00121A9440022A9EB050719F8D9
:1031F000013B303B5FFA83FCBCF1090FCAD80A27B8
:1032000007FB0232F1E70021EDE754F804CB023767
:10321000EB5D682B27D1EB195B78682B0CBF722311
:10322000112303F00309B94415F80970642F01D084
:10323000692F42D1822B30D1073424F007073C4656
:103240007F6854F8083B0392CDE90416CDE90037B6
:103250000122029209AA59460790FFF7ADFE6EE0DF
:103260006FF0004CD4E76C2B06D1EB195B786C2B1C
:103270000CBF82232123D4E76A2B08D07A2B08D0F5
:10328000742B08D04C2B14BF00236123C9E73123D2
:10329000C7E74123C5E75123C3E7112B54F8047B4B
:1032A00007D0722B15BF3B467BB2DF1747F3C01721
:1032B000C9E73BB247F3C037C5E7752F04D007F025
:1032C000DF0EBEF1580F2FD1822B11D1073424F01D
:1032D000070C6446DCF804C054F8083B0392752FD1
:1032E000CDE904161AD10022CDE9003C0292B1E7E3
:1032F000512B54F804CB0DD0722B05D0112B06D0D6
:1033000063464FF0000CE9E75FFA8CF3F9E71FFA28
:103310008CF3F6E763464FEAEC7CDFE7582F01D1E8
:103320000322E1E70222DFE7632F0AD154F8043BCE
:103330000096DBB209AA59460790FFF723FE0798CB
:103340000AE0732F15D154F804AB0AEB0C079AF876
:1033500000300BB1BA4502D109F1010AECE6009642
:1033600009AA594607900AF1010AFFF70BFE0798D0
:10337000EDE7702F1CD154F8047B0096302309AA86
:1033800059460790FFF7FEFD07980096782309AA93
:103390005946FFF7F7FD0023CDE9033303230293DA
:1033A000FB17CDE900730798059609AA594654E71B
:1033B0000096252309AA59460790252F18BFD14604
:1033C000FFF7E0FDBBE7009609AA59460790D146F2
:1033D000FFF7D8FDB3E70EB40FB505AB002153F8E6
:1033E000042B00916FF000410393FFF791FE04B0AE
:1033F0005DF804EB03B0704713B500240094FFF7A9
:1034000087FE02B010BD07B5019000F0C9F8019821
:1034100003B05DF804FB07B5019000F0CBF801980C
:1034200003B05DF804FB6FF0150070476FF01500F6
:10343000704700F035BC03F003B903460122D3E81E
:103440004F0FC3E8412FC0B20029F8D17047D0E830
:103450005F3F5B18C0E8523F002AF8D198B270472E
:10346000D0E85F3F5B1AC0E8523F002AF8D198B21B
:1034700070470346D3E84F0FC3E8421FC0B2002A8B
:10348000F8D1704700B589B000F08AF8132101A87F
:10349000FFF72CFA104E114D0424039B019A1A6079
:1034A000304600F0F4FB049B019A1A60304600F0AD
:1034B000EEFB013CF1D10424039B019A1A602846DB
:1034C00000F0E5FB049B019A1A60284600F0DFFB40
:1034D000013CF1D1E0E700BFF0490200801A06008C
:1034E00073B5002201460446022000F081FA0D2641
:1034F00000F056F80022254614F8013B23B902B02B
:10350000BDE8704000F056B80A2B09D10D2A07D04B
:1035100001220DF1070102208DF8076000F068FA22
:1035200001222946022000F063FA14F8012CE2E798
:1035300000B5A3B002460B4601A88421FFF75CFF4B
:10354000832806D9074B1A681B79CDF883208DF89C
:103550008730002802DD01A8FFF7C2FF23B05DF825
:1035600004FB00BFE17100080FB407B504A951F8CE
:10357000040B0191FFF7DCFF03B05DF804EB04B02E
:103580007047EFF31080C04300F001007047EFF385
:103590000580003818BF01207047FFF76DB90000A3
:1035A00008B5FFF74BF9024A13680133136008BDF1
:1035B000CC1D0020044A136823B1013B13600BB9F2
:1035C000FFF74EB9704700BFCC1D002008B50B486F
:1035D000FFF733FF28B1FFF7E3FFBFF34F8F20BFA3
:1035E000FDE7FFF7D4FF08B1FFF74CFFFFF7C9FF76
:1035F0000028F9D0012000F025FB00BF0C1E0020A0
:1036000070470000F0B5294D8FB035EA200528BF7E
:1036100005460E4617460021302202A803F008F89E
:10362000234B01952B44012B01AC039605D9214B6B
:103630009D4202D0033B9D4232D1F36B0293736BE8
:1036400008931D4B5B690493DA6B05925A6B1B6BF5
:1036500006920793FFF7A4FF184A13680133012B62
:10366000136009D126460FCE154D0FC50FCE0FC5DD
:103670000FCE0FC533682B600FCC124D0FC50FCC8A
:103680000FC50FCC0FC523682B600F4B1B68A5F12E
:10369000300043B19847FFF78DFF00200FB0F0BD19
:1036A00002970894CDE7FFF7ABFFF4E70101FF8035
:1036B000C2FE007F4001FF808C010020D01D002051
:1036C000D81D0020101E0020D41D00200FB407B507
:1036D00001210648CDF804E0FFF7CBFE019A014630
:1036E00010B90348FFF78EFFFFF770FF441E00205C
:1036F0000001FF8000207047014B1878C0B270476E
:10370000441E002008B504460121064876461546A9
:10371000FFF7AFFE20B9324629462046FFF772FF79
:10372000FFF754FF441E002013B5074C012120462B
:10373000FFF78DFE034628B9009001462288034812
:10374000FFF7E0FF02B010BD461E002023010480F9
:1037500013B5094C01212046FFF782FE4FF6FF7397
:10376000984206D100232288044800931946FFF7A7
:10377000C9FF02B010BD00BF461E00202401048016
:10378000034B188880B2B0FA80F04009704700BF40
:10379000461E002008B5FFF703FFFFF7F1FF28B131
:1037A00001F060FBBDE80840FFF704BF01F048FBF3
:1037B000F8E76FF01C0070476FF0150070470120AC
:1037C0007047002070477047034B186818B14FF0DE
:1037D000FF31FDF7EDBD7047181D0020024B186842
:1037E00008B1FDF7FDBD7047181D0020F8B5074E64
:1037F00015460C468F18BC4205D014F8011B304604
:1038000000F05AFCF7E72846F8BD00BF94200020DE
:1038100038B511F001048DB205D0084801F0A8F9BF
:10382000041E18BF0124EB0605D5044801F0B0F9C9
:1038300008B144F01004204638BD00BF9420002099
:1038400010B5044602F0DEFE204610BD10B50C4651
:103850002AB1044800F0FCFB2070012010BD104686
:10386000FCE700BF9420002038B5084B0360084BEC
:103870001B680446154633B90648FFF783FA054826
:10388000294601F0C3F9204638BD00BFF071000899
:10389000B8200020942000200020704700207047AE
:1038A00008B5012000F0CEF9074A0849136818440A
:1038B000884289BF064B10600C224FF0FF308CBF4E
:1038C0001A601846704700BF38030020002C002003
:1038D00018210020012070470120704708B5FEF72D
:1038E000C7FA08BD08B5FEF7CBFA08BD10B5044607
:1038F000037803F00303012B08D0FFF765FF23785B
:1039000003F00302012A03D1FFF768FF002003E060
:1039100043F002032370012010BD037823F003035A
:1039200043F001030370FFF759BF00003F2870B553
:1039300004462EDC184E56F820305A1C13D10228AB
:1039400011DCFFF7ABFF034658B92046FFF7A4FF91
:10395000034630B9114D2B78BFF35B8FDB0704D5DD
:103960000F4B46F82430184670BD2846FFF7BEFFBF
:103970000028F5D00B490A484FF41652FFF774FFA0
:10398000094A0A490648FFF7A5FF2846FFF7C5FF81
:10399000E6E70023E7E700BF38020020481E0020CA
:1039A000CC1E00203872000888010020C7370008AC
:1039B00038B50546FFF7BAFF0B4B002443F8254006
:1039C00030B902F083FB092303604FF0FF3038BDAC
:1039D00003685B699847051E04DA02F077FB6D42C5
:1039E0000560F2E72046F2E738020020FFF7E0BF6B
:1039F00013B5CDE90021FFF799FFDDE9002140B9BA
:103A000002F064FB092303604FF0FF34204602B04C
:103A100010BD0368DB689847041EF7DA02F056FB16
:103A200064420460F0E713B5CDE90021FFF77EFFA3
:103A3000DDE9002140B902F049FB092303604FF0A2
:103A4000FF34204602B010BD03689B689847041EEF
:103A5000F7DA02F03BFB64420460F0E710B5FFF7D1
:103A600065FF044628B902F031FB092303602046B4
:103A700010BD0368DB699847041EF8DA02F026FBE4
:103A8000644204600024F2E72DE9F84FB2F1000827
:103A900005460E4608DA02F019FB162303604FF0C4
:103AA000FF342046BDE8F88FFFF7D8FF044668B31F
:103AB000DFF87CB0DFF87CA01BF8059000273C46BF
:103AC000B84523DDF25D0A2A1CD1B9F10D0F19D0DA
:103AD000BC420BDA3A1B31192846FFF789FF002850
:103AE000DDDB0444A742DCDC0BF8059001225146E3
:103AF0002846FFF77DFF0028D1DBD2D04FF00D0321
:103B00000BF8053016F807900137D9E7A045C8DD56
:103B1000A8EB040231192846FFF76AFF0028BEDB34
:103B200024181FBF3619024B16F8012C5A55B8E756
:103B30008C1E0020E6710008FFF790BF7FB5002AB9
:103B400004460D4606DA02F0C1FA162303604FF070
:103B5000FF3019E00192FFF781FF019AE8B1124EA0
:103B600001220DF10F012046FFF75DFF0028EEDB7B
:103B70000AD09DF80F300D2B08D1325D0A2A33553B
:103B8000EED00A232B70012004B070BD0A2B02D1A5
:103B9000325D0D2AF3E73355F4E72946204604B099
:103BA000BDE87040FFF73FBF4C1E002013B5CDE9C4
:103BB0000021FFF7BBFEDDE9002140B902F086FAE3
:103BC000092303604FF0FF34204602B010BD0368A4
:103BD0001B699847041EF7DA02F078FA6442046021
:103BE000F0E7FFF7E3BF10B5FFF7A0FE30B902F032
:103BF0006DFA092303604FF0FF3010BD03689B6925
:103C00009847041E04DA02F061FA64420460F2E7A5
:103C10000020F2E70A4D08B52B680446986802F0C8
:103C20001DFB2B68D86802F019FB0120FFF7DBFFB2
:103C30000220FFF7D8FF0CB1FFF724FCFEE700BF1E
:103C40004403002008B5FFF7E5FF38B50D46FFF740
:103C50006DFE044630B902F039FA092303604FF0D3
:103C6000FF3038BD0368DB699847002814BF4FF464
:103C700000534FF400436B60236820469B6A9847CB
:103C800028610020EDE7FFF7E0BF02F0BBBC4FF07A
:103C90008042516A536A5B1A8342FBD3704700002B
:103CA000F8B5CD1C25F0030508350C2D38BF0C25C3
:103CB000002D064601DBA94203D90C233360002006
:103CC000F8BDFFF70BFE254803681C469CB9244F3E
:103CD0003B6823B92146304602F046FD386029464C
:103CE000304602F041FD431C2AD10C23336030469C
:103CF000FFF7F8FDE3E72268521B1ED40B2A16D902
:103D00006119A342256018BF5960636808BF01604C
:103D100062514B603046FFF7E5FD04F10B00231DB7
:103D200020F00700C21ACBD01B1AA350C8E7626864
:103D3000A3420CBF02605A60ECE723466468C5E703
:103D4000C41C24F00304A04205D0211A304602F01E
:103D50000BFD0130C9D02560DCE700BFD81E002074
:103D6000DC1E00201FB500230362094B002918BF89
:103D70000B460093031D02931C23044603936846DD
:103D80000B230193FDF7FCFA206004B010BD00BFC7
:103D90005072000810B500210446FFF7E3FF2046EB
:103DA00010BD000037B504464FF0FF310068FDF745
:103DB000FFFA054620B9236A0133236203B030BD00
:103DC000FFF79AFC03460028F8D1034800932A46DF
:103DD0001946FFF797FC00BF15010280036A013BFB
:103DE00013B503620068FDF7FBFA044648B1FFF71C
:103DF00083FC034628B90090014622460248FFF79B
:103E000081FC02B010BD00BF1701028010B504464E
:103E10000068FDF7FDFA204610BD30B591B00323D0
:103E2000069301230A93102300240B9302254FF4D9
:103E3000601306A8CDE90D5407940F9301F0A0FA82
:103E400080B90F23CDE901354FF48063CDE904300B
:103E50000390294601A801F033FDB0FA80F0400933
:103E600011B030BD2046FBE708B5FFF7D6FF10B90B
:103E70000148FFF72BFC08BD2C730008DFF834D095
:103E8000002103E00C4B5B58435004310B480C4BB2
:103E900042189A42F6D30B4A02E0002342F8043B50
:103EA000094B9A42F9D302F0D7F8FCF791F9704721
:103EB000FEE700000030002088760008880100201E
:103EC000B8030020C003002020210020FEE70000EE
:103ED00070B500F0D9FE041E32DB1A4E56F82400ED
:103EE00000282DD08423184D6343EB58DA6911065E
:103EF00009D5DA69120606D51B681B0603D5134BD4
:103F000001211B68984784236343EB58DA699106C3
:103F10000BD5DA69920608D51B68980605D50B4BB8
:103F200056F824001B6800219847842044432B59ED
:103F3000DA69110704D5DA69120744BF08221A6248
:103F400070BD00BFE41E0020F01E0020E01E002017
:103F50000148FFF7BDBF00BF004800400148FFF720
:103F6000B7BF00BF004400400148FFF7B1BF00BF2A
:103F700000380140034B19604168034B43F821208E
:103F8000704700BFE01E0020E41E002030B5D0E9DD
:103F90000035274883421AD1264C252384206843C4
:103FA000254D285832B3026809BB42F02002026056
:103FB000224A03F11001926842F82140590903F0A6
:103FC0000702012393401E4A42F8213030BD1D48AC
:103FD000834206D000F58060834205D0002423464A
:103FE000DCE7194C2623D9E7184C2723D6E742F003
:103FF0008002DCE70268A1B922F0200202600268B8
:1040000012F0800FE2D103F007015A0901238B401F
:1040100020320B4941F82230BFF34F8FBFF36F8F2F
:10402000D4E722F080020260026812F0200FE9E774
:1040300000380140693F0008F01E002000ED00E05C
:1040400000E100E0004400405D3F0008513F0008EF
:10405000F8B54468174E842303FB046305469A6849
:10406000B2F5805F15D11A69B2B940F2FF12A3F818
:104070005C20842303FB0463B3F85C70284600F0E3
:1040800077FD0028FAD084235C433359988C38405C
:10409000F8BD1AB91A6932B9FF22E8E7B2F1805FB8
:1040A00005D11A690AB97F22E1E73F22DFE7002242
:1040B000DDE700BFF01E002070B5466805460C46DF
:1040C000284600F065FD0028FAD084235E43034BA8
:1040D0009B59C4F308041C8570BD00BFF01E00206E
:1040E0003A4B5A69D20770B52ED59D68384C9968FD
:1040F00038489A6805EA0406AC4301EA000104BFA7
:1041000001249C6022F06F428142304B08BF4FF483
:10411000807022F47E0208BF9860120C2E481204B0
:10412000824204BF4FF480309860294B9E4205D0F4
:10413000284B994202D0284B9A4205D1274B284A56
:104140001B68106801219847204BD86859695A6943
:10415000860722F002025A6107D08D0705D51F4B52
:104160001F4A1B68106800219847184B99695A69C3
:104170005B698C0709D5900507D5190405D5174B40
:10418000174A1B68106805219847104A95695469B9
:10419000526915F0040504F4806408D03CB112049F
:1041A00005D50E4B0E4A1B68106807219847074B30
:1041B0005B6955B14CB11B0407D5084B084A1B6815
:1041C0001068BDE870400221184770BD00640040CF
:1041D0000100000400010008000001108020002000
:1041E0007C200020FFF77CBFFFF77ABF044B1960EB
:1041F000044B416C43F821200023C364704700BF87
:10420000802000207C2000200268416C536923F448
:10421000064323F013035361024A002342F821307E
:10422000C36470477C2000200268094B9A420DD17C
:1042300003F5D6331A6942F000721A611A6922F046
:1042400000721A61DA6922F00072DA61704700BF09
:1042500000640040F8B50D46044601F0CFFB18237A
:10426000B0FBF5F01925B0FBF3F386089BB2B3421F
:1042700001D30020F8BD01339BB2DF4303FB05529D
:10428000162190422FD001393A44FAD1EFE700F0DD
:10429000ADFA801B022823D86368DA07F7D5E269F4
:1042A0001E4B1340E361E3692B43E361236823F072
:1042B0000103236000F09AFA054604E000F096FA44
:1042C000401B022804D86368DB07F7D40120D1E73C
:1042D000A169A2691248002392B2090CFFF7F6F90E
:1042E0001048FFF7F3F91048246800EBC10250F8BA
:1042F000311052680904120501F4702102F4E00241
:104300000A43C3F30903134343F08075236843F062
:104310000103236000F06AFA0646BDE700FC80FC5A
:10432000407300086B730008BC73000810B50446A6
:1043300000F036FF10B10648FFF7C8F9A16C20461F
:10434000FFF788FF012801D00248F5E710BD00BF44
:10435000857300089B73000884B070B505AC84E8D1
:104360000E000268936858010E469DF822103CD456
:1043700093681B013BD4906810F0805031D0022329
:104380001C0102EB03139DF82100D3F8805105F0C6
:104390000105C3F88051490058BBD3F8800141EAB8
:1043A00046510143C3F88011D3F8841121F00F0165
:1043B000C3F884119DF82010D3F8840101F00F0197
:1043C00001432244C3F884110699C2F88811079961
:1043D000C2F88C11D3F8802142F00102C3F8802189
:1043E0000120BDE8704004B070470023C8E70123F6
:1043F000C6E7D3F8800140EAC600014341F004015A
:10440000D0E70368DA6812F0030247D0D3F8B0218E
:10441000C2F380024A73002A3CD1D3F8B021520D76
:104420000A60D3F8B021C2F340028A73D3F8B421F2
:10443000072A96BFD3F8B421082202F00F020A73AC
:10444000D3F8B8210A71D3F8B821120A4A71D3F807
:10445000B821120C8A71D3F8B821120ECA71D3F8A0
:10446000BC210A72D3F8BC21120A4A72D3F8BC21CB
:10447000120C8A72D3F8BC21120ECA72DA68C06CB0
:1044800042F020020128DA600AD15A6942F00202A1
:104490005A617047D3F8B021D208C1E7104670477F
:1044A0000120704730B5012B8BB04FF0000428D8A5
:1044B0000E9DCDE90554012407949BB94901520191
:1044C000CDE90013CDE902230023049301210E233B
:1044D000CDE90813694600F001FEB0FA80F040090A
:1044E0000BB030BD4B0B0093C900530BD20089B207
:1044F00092B241F0040142F004020191029303924E
:10450000E2E72046ECE70000244BF0B51746DA69F5
:1045100042F00072DA61DB6985B00E46002503F0D7
:1045200000730446039345648968B6F90400039B4D
:1045300000F0ECF93169B6F90C0000F0E7F9B6F9D2
:104540000400012100F068FAB6F90C00012100F026
:1045500063FA336823604FF4A0224FF4E003C4E908
:104560000423022363602046C4E90655C4E90855C4
:10457000C4E90A55C4E90255A764FFF7D7FE3368BA
:10458000074A934214BF0E232B4600932A462B461C
:1045900029462046FFF786FF05B0F0BD0010024017
:1045A000006400402DE9F0410D4688B016490193A2
:1045B000074628461446FEF7BFF91449064620462A
:1045C000FEF7BAF901463046FEF794F90E49064661
:1045D0002846FEF7C5F90D4980462046FEF7C0F98A
:1045E0000B4B019A03969E42ADF81050CDF8148003
:1045F000ADF81840079003D103A93846FFF784FFB0
:1046000008B0BDE8F08100BF6C7200088472000839
:104610000064004030B503681A4DAB421BD1072936
:1046200019D8DFE801F004191D18182218260123F3
:10463000154CC36402211423FAB16A691143134A69
:104640006961926803F1100142F82140012202FAE7
:1046500003F30F4A136030BD0E4C01211323EBE727
:104660000D4C4FF400411623E6E70B4C4FF400715C
:10467000F9E7094C4FF48061F5E76A6922EA010124
:10468000DDE700BF00640040E140000800ED00E00D
:1046900000E100E0E5410008E941000830B591FA89
:1046A000A1F391FAA1F1B3FA83F304685B00032547
:1046B000B1FA81F105FA03F3490024EA03038A40C1
:1046C0001343036030BD00007FB5224B05283ED860
:1046D000DFE800F003111C273D325A6942F4003232
:1046E0005A615B6903F400330193019B4FF09040E2
:1046F00007B05DF804FB5A69174842F480225A61FA
:104700005B6903F480230293029BF1E75A69134823
:1047100042F400225A615B6903F400230393039B74
:10472000E6E75A690E4842F480125A615B6903F465
:1047300080130493049BDBE75A690A4842F4800221
:104740005A615B6903F480030593059BD0E7064833
:10475000FEF7BCFF001002400004004800080048BB
:10476000000C0048001400487474000810B54FF4A1
:104770007071044604F00F0400F0C8F80120A04056
:1047800010BD00004B1C70B504460E46018218D0C7
:10479000C1F30310FFF798FF05463046FFF7E6FF29
:1047A000238A084A656103F00F03206052F8233022
:1047B000A36105F11003636005F118032835A360B8
:1047C000E56070BDB4740008B0F9100000F024B9C1
:1047D0000A46D0E905010AB9FFF760BF0122FBE7ED
:1047E00008B500F0BBFB002008BD000010B5FEF7C7
:1047F000D7FE124A124914684FF08043586A0B885A
:1048000010601B1B0344B3F5803F15D34FF47A703F
:10481000B3FBF0F200FB123305E00132A3F57A732B
:10482000B3F57A7FF9D2074C0B80236813442360D9
:10483000FEF7C0FE206810BD0022F1E788200020AE
:10484000842000208C2000207047000010B5174CF9
:104850008AB001F00BFC00F03BFD236A990705D4F8
:1048600000F05AFD236A23F018032362FFF7FCFAD5
:1048700001F0FCFB28220021684601F0D9FE236AE2
:1048800013F4407F0AD0082300936846012306935F
:1048900000F076FD10B10648FEF718FFFFF7D4FFD1
:1048A000044B01221A600AB010BD00BF0010024084
:1048B000957400089020002030B591FAA1F391FA88
:1048C000A1F1B3FA83F384685B000325B1FA81F1A7
:1048D00005FA03F3490024EA03038A401343836083
:1048E00030BD30B591FAA1F391FAA1F1B3FA83F397
:1048F000C4685B000325B1FA81F105FA03F34900AE
:1049000024EA03038A401343C36030BD2DE9F84312
:10491000441C0E467BD000F00F023E4BC1F38318BF
:1049200053F822501FFA80F9C0F3031001F0070773
:10493000FFF7CAFEB8F10F0F0CBF0322424629460B
:10494000FFF7BAFF022F04462DD0032F5DD0791E4A
:104950004B424B4195FAA5F2B2FA82F2216852001D
:10496000032000FA02F221EA020195FAA5F2B2FA56
:1049700082F252009340013F0B43012F236005D880
:10498000636832074CBF2B43AB436360C6F301122D
:10499000012A02D0022A18BF002229462046BDE87B
:1049A000F843FFF79EBF19F0080FC6F3832217D014
:1049B0002B0A93FAA3F1B1FA81F1406A93FAA3F3B7
:1049C00089004FF00F0CB3FA83F30CFA01F19B004E
:1049D00020EA010102FA03F30B4363620223B9E701
:1049E00095FAA5F1B1FA81F1036A89000F2000FA66
:1049F00001F123EA010195FAA5F3B3FA83F39B00D1
:104A000002FA03F30B432362E8E73B46A2E7BDE863
:104A1000F88300BFB474000838B5431C0C463BD083
:104A200000F00F021D4BC0F3031053F82250FFF7A4
:104A30004BFE95FAA5F2B2FA82F35A0001680323FD
:104A4000934095FAA5F2B2FA82F20B405200D3409D
:104A5000013B012B16D8E31E022B436809D82B43D8
:104A6000032C436016D101222946BDE83840FFF7E8
:104A700038BF23EA0503012C4360F4D0022C07D091
:104A80000022F1E704F0FD03012BECD0052CF5D159
:104A90000222E9E7052CF2E738BD00BFB474000834
:104AA00003682F4A934210B5044636D12D4BDA687D
:104AB00042F48042DA60DA6822F48042DA609A696D
:104AC00022F480429A61B4F9180040F2C331FFF732
:104AD0001DFFB4F91A0040F2C331FFF717FFE36975
:104AE00023F40073B3F5807F05D1B4F9200040F2C0
:104AF000C331FFF70BFFE36923F48073B3F5007F45
:104B000005D1B4F9220040F2C331FFF7FFFE62681D
:104B1000154B002143F8221010BD144A934210D0C7
:104B200002F580629342CED10E4B1A6942F4802284
:104B30001A611A6922F480221A61DA6922F4802249
:104B40000BE0084B1A6942F400321A611A6922F428
:104B500000321A61DA6922F40032DA61B3E700BF89
:104B60000038014000100240E41E002000440040D4
:104B7000436884225343054AD358DA69120744BF75
:104B800008221A62D869C0F340107047F01E002056
:104B9000436884225343034AD358D869C0F3C010F2
:104BA000704700BFF01E00204268034684214A433C
:104BB000154910B41C68545050189A684260DA685D
:104BC00082601A69C2605A690261DA6982610022F0
:104BD000C0E90822A0F85220C261A0F85020A0F835
:104BE0005A20A0F85820B3F91A20013205D1082321
:104BF0005DF8044B436101F000BAB3F9183001339A
:104C00000CBF04230C23F3E7F01E00208160FFF7A4
:104C1000CBBF0000012A10B50ED0022A24D00024F8
:104C20000929446126D010DC072910D008290CD1AD
:104C30007AB14FF480520CE04FF4C062082942610F
:104C4000F7D0092918D0072902D00D4815E072B114
:104C50000022022B0CBF4FF400530023BDE810408C
:104C6000C2600361FFF7A0BF4FF48062E6E74FF038
:104C70008052EEE7002ADCD00248FEF727FD00BF95
:104C800023750008F4740008094B98420BD0A3F573
:104C90007443984209D003F58063984214BF4FF0E3
:104CA000FF3002207047002070470120704700BF8E
:104CB000003801402DE9FF470E460446464930467C
:104CC0001546FDF739FE454980462846FDF734FE76
:104CD00001464046FDF70EFE3F4907463046FDF7C8
:104CE0003FFE3E4982462846FDF73AFE022E8146A7
:104CF0000AD00F2D08D038490220FDF71DFE40458F
:104D00004AD13748FEF7E2FC4FF00108354B2760E7
:104D10009F4244D103F558439A6942F480429A6114
:104D20009B6903F480430193019B3846FFF7ACFF76
:104D3000514660603046FFF7E9FD01213046FFF73C
:104D40006BFE49462846FFF7E1FD28460121FFF7A3
:104D500063FE00234FF41652C4E90223C4E904336E
:104D6000E361268365832046FFF71EFFB8F1000F3D
:104D70000FD01D4B01221A601C4B04F12005206846
:104D800061681A4603C20834AC421346F7D1206862
:104D9000106004B0BDE8F0874FF00008B6E7144B90
:104DA0009F420ED003F580639F42BED1114BDA695A
:104DB00042F48022DA61DB6903F480230393039BCE
:104DC000B3E70C4BDA6942F40032DA61DB6903F4D1
:104DD00000330293029BA8E7E47200089C7200086B
:104DE0005175000800380140B820002094200020B0
:104DF00000440040001002400E4B186810F0010003
:104E000018BFD8690C4B1A681CBF80F04000C0F373
:104E10008010D10704D5DB6913F0400F08BF0120D3
:104E2000064B1A68D20704D5DB6913F0400F08BFA0
:104E30000120704700380140004400400048004015
:104E400008B5FEF7ADFB064B1868012110F0010014
:104E500018BF084600F068FABDE80840FEF7AABB94
:104E60000070004030B58DB0FFF7C6FF0446002843
:104E700054D1FEF795FB00F005F901210846284DB5
:104E800000F062FA2146282202A82C6001F0D0FB33
:104E9000244BDA6942F08052DA61DB6903F0805317
:104EA000019302A8019B00F0D9FD02230293012186
:104EB000102302A80994CDE9061300F061FA044614
:104EC00010B11948FEF702FC01460090142202A816
:104ED00001F0AEFB694602A800F004FE0F23009922
:104EE000029302A8CDE903440694059400F0E8FC7F
:104EF00008B10E48E6E7FEF7B7FF4FF08042516A6F
:104F0000536A5B1AB3F5FA7FFAD300F0D1F80123A4
:104F10002B600DB0BDE83040FEF74CBB0DB030BD8E
:104F2000902000200010024086750008AB75000834
:104F3000074A4FF0804313601A69910707D5DA6872
:104F4000920704D56FF002021A61FDF711BF704796
:104F5000BC20002000487047D475000830B589B0E7
:104F600001A903A800F0BEFD00F048FD1F4B019011
:104F7000DA691F4C42F00102DA61DA6902F00102DB
:104F80000292029A1A6942F001021A611A6922F029
:104F900001021A61069A4FF0804323604FF0FF33FD
:104FA000E360144BFAB9B0FBF3F001380025606000
:104FB0000F482561C4E90555A56000F0FDFD0E4BC5
:104FC0000E4A9B68C3F8B0200D4B4FF080521A6018
:104FD0000748294600F02EFE2268D36823F002031A
:104FE000D36009B030BD4000DDE700BF00100240D3
:104FF000BC20002040420F0000ED00E0314F0008CF
:1050000000E100E004480268D36823F00203D360A3
:10501000002100F00FBE00BFBC2000204FF08043F5
:10502000586A7047054B1B686FF0020258631A619B
:10503000DA6842F00202DA60704700BFBC2000204C
:10504000064B1B686FF002021A615A6942F00202B5
:105050005A61DA6842F00202DA607047BC20002030
:10506000034B1A68D36823F00203D360704700BF74
:10507000BC200020024B1B686FF002021A617047CF
:10508000BC200020064B074A1B68596A11605A6B06
:10509000054B1A604FF08043DA68044B1A60704782
:1050A000BC2000200C21002008210020102100201D
:1050B000064B074A1B6812685A62064A12685A630E
:1050C000054B1A684FF08043DA607047BC2000201F
:1050D0000C210020082100201021002003684A69CB
:1050E000D3F8000240F0010070B5C3F80002D3F815
:1050F0001C520124944025EA0405C3F81C52CD69D2
:10510000E04385BBD3F80C52CE680540C3F80C527F
:105110008D8803EBC20245EA0645C2F840528E680C
:105120000D8845EA0645C2F844528A696ABBD3F83D
:1051300004220240C3F804220A6952BBD3F81422A5
:105140001040C3F814020A6A012A02BFD3F81C22D5
:105150001443C3F81C42D3F8002222F00102C3F822
:105160000022002070BD012DDFD1D3F80C520E6853
:105170002543C3F80C528D8803EBC20245EA06456D
:10518000C2F840528E688D89CBE7D3F804222243BF
:10519000D0E7D3F814222243C3F81422D3E7704790
:1051A00070B50446002800F08F8090F83D3003F081
:1051B000FF021BB980F83C20FFF7F1FF022384F8BF
:1051C0003D3023681A6822F002021A601A6842F021
:1051D00001021A60FFF70AFB064623685D6815F0B6
:1051E000010557D05A68D1076BD5A269012A1A6800
:1051F0000CBF42F0800222F080021A60E269012AAC
:105200001A680CBF42F0400222F040021A60226A83
:10521000012A1A680CBF42F0200222F020021A6014
:10522000626A012A1A680CBF42F0100222F01002D2
:105230001A60A26A012A1A680CBF42F0080222F022
:1052400008021A60E26A012A1A680CBF42F00402DE
:1052500022F004021A60D4E902210A4321690A43B8
:1052600061690A43616801390A43DA611A6822F008
:1052700001021A60FFF7BAFA054623685A68D20796
:1052800013D4586810F001001BD10123206484F866
:105290003D3009E0FFF7AAFA801B0A289DD90320B8
:1052A00084F83D0084F83C5070BDFFF79FFA401B26
:1052B0000A28E2D90320002384F83D0084F83C301A
:1052C000F2E7042384F83D300120EDE77047000049
:1052D000074A08B5136843F010031360032000F079
:1052E00009F80F20FFF77CFAFFF7F0FF002008BD58
:1052F000002002400749CA6822F4E0620302120457
:1053000003F4E063120C134343F0BF6343F4003330
:10531000CB60704700ED00E0024A136843F48073ED
:105320001360704700700040064A1369012923F09A
:105330000403136101D130BF704740BF20BF20BFBD
:10534000704700BF00ED00E00B4A136823F0030331
:1053500018430A4B10601A69012942F004021A61CD
:1053600005D130BF1A6922F004021A61704740BFAC
:1053700020BF20BFF6E700BF0070004000ED00E056
:105380002DE9F3470546002833D00368DA0711D426
:105390002B689B0700F186802B681C0700F1EF80CB
:1053A0002B68580700F13281E869002840F0C3817A
:1053B000002049E0934C636803F00C03042B07D0F2
:1053C000636803F00C03082B15D16368DF0312D563
:1053D0004FF4003393FAA3F3B3FA83F3216803F095
:1053E0001F03012202FA03F30B42D1D06B68002B9A
:1053F000CED1012028E06A68B2F5803F27D123682A
:1054000043F480332360E36AA96823F00F030B435E
:10541000E36262B3FFF7EAF94FF40036074696FA03
:10542000A6F6B6FA86F8002E14BF4346202303F0F2
:105430001F022168012393400B42A9D1FFF7D6F93F
:10544000C01B6428EFD9032002B0BDE8F0872368B1
:1054500032B923F480332360236823F48023D1E717
:10546000B2F5A02FF5D143F480232360C7E7FFF7FF
:10547000BDF94FF40036074696FAA6F6B6FA86F856
:10548000002E14BF4346202303F01F02216801238E
:1054900093400B423FF47CAFFFF7A8F9C01B642890
:1054A000EED9D0E7574C636813F00C0F07D0636850
:1054B00003F00C03082B1FD16368DE031CD4022306
:1054C00093FAA3F3B3FA83F3216803F01F030122D5
:1054D00002FA03F30B4202D02B69934289D121686F
:1054E0006B69F82292FAA2F2B2FA82F221F0F80184
:1054F00093400B4323604FE7012393FAA3F3B3FADE
:1055000083F303F184532A6903F584139B00D2B11A
:1055100001221A60FFF76AF90226074696FAA6F6F4
:10552000B6FA86F8002E14BF4346202303F01F026C
:105530002168012393400B42D1D1FFF757F9C01BDB
:105540000228EFD97FE700221A60FFF74FF9022601
:10555000074696FAA6F6B6FA86F8002E14BF43461A
:10556000202303F01F022168012393400B423FF4E4
:1055700013AFFFF73BF9C01B0228EED963E7224ABD
:10558000A969204C012393FAA3F3B3FA83F31344DC
:105590009B00D9B101221A60FFF728F902260746BD
:1055A00096FAA6F6B6FA86F8002E14BF43462023D4
:1055B00003F01F02616A012393400B427FF4F0AEB7
:1055C000FFF714F9C01B0228EED93CE700221A604D
:1055D000FFF70CF90226074696FAA6F6B6FA86F801
:1055E000002E14BF4346202303F01F02616A0123EB
:1055F00093400B423FF4D4AEFFF7F8F8C01B0228EB
:10560000EED920E70010024020819010914CE36910
:10561000D90037D4E36943F08053E361E36903F0D1
:1056200080530193019B01278B4E3368DA052BD5FC
:10563000EB68012B39D1236A43F001032362FFF7A2
:10564000D5F84FF00208064698FAA8F9B9FA89FA8F
:1056500098FAA8F3002B00F0F980216AB9F1000F45
:1056600065D05FFA8AF303F01F03012202FA03F305
:105670000B4254D0002F3FF497AEE36923F08053E0
:10568000E36191E60027CFE7336843F4807333602A
:10569000FFF7ACF880463368DB05C9D4FFF7A6F8FE
:1056A000A0EB08006428F6D9CDE653BB236A23F0AB
:1056B00001032362236A23F004032362FFF796F8B1
:1056C0004FF00208064698FAA8F9B9FA89FA98FA4A
:1056D000A8F3002B00F0BC80216AB9F1000F28D09C
:1056E0005FFA8AF303F01F03012202FA03F30B426D
:1056F000C0D0FFF77BF841F28833801B9842E6D98F
:10570000A1E6052B236A03D143F00403236292E749
:1057100023F001032362236A23F004038EE7FFF7DB
:1057200065F841F28833801B984291D98BE620239B
:1057300099E72023D6E7474C636803F00C03082B56
:1057400073D04FF0807393FAA3F3B3FA83F303F1AA
:10575000845303F584139B00002202281A6049D168
:10576000FFF744F84FF00076074696FAA6F6B6FA29
:1057700086F8002E14BF4346202303F01F02216841
:10578000012393400B422FD1D5E9081362680B43E4
:1057900022F47412134363604FF0807393FAA3F3FF
:1057A000B3FA83F303F1845303F584139B000122BE
:1057B0001A60FFF71BF84FF00075064695FAA5F53D
:1057C000B5FA85F7002D14BF3B46202303F01F02D6
:1057D0002168012393400B427FF4EAADFFF706F8FE
:1057E000801B0228EED92EE6FFF700F8C01B022826
:1057F000BFD928E6FEF7FAFF4FF00075064695FA86
:10580000A5F5B5FA85F7002D14BF3B46202303F01C
:105810001F022168012393400B423FF4C9ADFEF7FC
:10582000E5FF801B0228EED90DE601283FF40CAEFF
:1058300063682A6A03F4803191427FF4DAAD6A6AC0
:1058400003F4701393423FF4B3ADD2E5616A05E708
:10585000616A42E7001002400070004010B5134C2E
:10586000616801F00C03082B1ED101F470124FF493
:10587000701393FAA3F3B3FA83F322FA03F30C4AF7
:10588000D05CE36A0F2203F00F0392FAA2F2B2FA9D
:1058900082F2D340074AD25CCB034ABF064B074B88
:1058A000B3FBF2F3584310BD0348FCE7001002407D
:1058B000DC750008EC75000800127A0000093D0054
:1058C0002DE9F0410D46044610B90120BDE8F081F4
:1058D000454A136803F007038B422ED322689107D1
:1058E00036D4D2073CD4404A136803F00703AB42D6
:1058F00066D822683D4D12F0040F6DD1130706D50E
:105900006B68226923F4605343EAC2036B60FFF7BC
:10591000A5FF6B68F02203F0F00392FAA2F2B2FA4C
:1059200082F2D340324AD35CD840324B1860324BBB
:105930001868FEF755FF0020C8E7136823F0070337
:105940000B431360136803F007038B42BDD1C5E717
:105950002649A0684B6823F0F00303434B60C0E77F
:105960006268224E012A306824D14FF4003393FA42
:10597000A3F3B3FA83F303F01F03012101FA03F346
:105980000342A2D0736823F003031A437260FEF748
:105990002DFF41F2883807467368626803F00C03F4
:1059A000B3EB820F9FD0FEF721FFC01B4045F3D918
:1059B00003208BE7022A0CBF4FF000730223D6E7C7
:1059C000136823F007032B431360136803F00703E6
:1059D000AB427FF47AAF8CE76B68E16823F4E06355
:1059E0000B436B608AE700BF0020024000100240BA
:1059F000FF750008400300203C030020084B186896
:105A0000084B5B684FF4E06203F4E06392FAA2F2A1
:105A1000B2FA82F2D340044AD35CD840704700BF48
:105A200040030020001002400F760008084B186861
:105A3000084B5B684FF4605203F4605392FAA2F291
:105A4000B2FA82F2D340044AD35CD840704700BF18
:105A500040030020001002400F7600080F2303606F
:105A60001F4B1A6851032DD54FF4A0224260DA6A09
:105A700002F00F0282601A6802F0010202611A68E5
:105A8000F82102F0F80291FAA1F1B1FA81F1CA40CD
:105A900042611A6A52071CD50522C2605A6A02F096
:105AA000010282611A6812F0807F14BF0222012273
:105AB000C2615A6802F4803202625B6803F47013B8
:105AC000436270471A6812F4803218BF4FF4803274
:105AD000CCE71A6A12F0010218BF0122DDE700BF0D
